{"abi":[{"type":"constructor","inputs":[{"name":"_name","type":"string","internalType":"string"},{"name":"_symbol","type":"string","internalType":"string"},{"name":"_decimals","type":"uint8","internalType":"uint8"}],"stateMutability":"nonpayable"},{"type":"function","name":"balanceOf","inputs":[{"name":"","type":"address","internalType":"address"}],"outputs":[{"name":"","type":"uint256","internalType":"uint256"}],"stateMutability":"view"},{"type":"function","name":"decimals","inputs":[],"outputs":[{"name":"","type":"uint8","internalType":"uint8"}],"stateMutability":"view"},{"type":"function","name":"mint","inputs":[],"outputs":[],"stateMutability":"nonpayable"},{"type":"function","name":"name","inputs":[],"outputs":[{"name":"","type":"string","internalType":"string"}],"stateMutability":"view"},{"type":"function","name":"symbol","inputs":[],"outputs":[{"name":"","type":"string","internalType":"string"}],"stateMutability":"view"},{"type":"function","name":"totalSupply","inputs":[],"outputs":[{"name":"","type":"uint256","internalType":"uint256"}],"stateMutability":"view"},{"type":"function","name":"transfer","inputs":[{"name":"_to","type":"address","internalType":"address"},{"name":"_value","type":"uint256","internalType":"uint256"}],"outputs":[{"name":"success","type":"bool","internalType":"bool"}],"stateMutability":"nonpayable"},{"type":"event","name":"Transfer","inputs":[{"name":"from","type":"address","indexed":true,"internalType":"address"},{"name":"to","type":"address","indexed":true,"internalType":"address"},{"name":"value","type":"uint256","indexed":false,"internalType":"uint256"}],"anonymous":false}],"bytecode":{"object":"0x608060405234801561000f575f5ffd5b50604051610d8d380380610d8d833981810160405281019061003191906101f5565b825f908161003f919061048d565b50816001908161004f919061048d565b508060025f6101000a81548160ff021916908360ff16021790555050505061055c565b5f604051905090565b5f5ffd5b5f5ffd5b5f5ffd5b5f5ffd5b5f601f19601f8301169050919050565b7f4e487b71000000000000000000000000000000000000000000000000000000005f52604160045260245ffd5b6100d18261008b565b810181811067ffffffffffffffff821117156100f0576100ef61009b565b5b80604052505050565b5f610102610072565b905061010e82826100c8565b919050565b5f67ffffffffffffffff82111561012d5761012c61009b565b5b6101368261008b565b9050602081019050919050565b8281835e5f83830152505050565b5f61016361015e84610113565b6100f9565b90508281526020810184848401111561017f5761017e610087565b5b61018a848285610143565b509392505050565b5f82601f8301126101a6576101a5610083565b5b81516101b6848260208601610151565b91505092915050565b5f60ff82169050919050565b6101d4816101bf565b81146101de575f5ffd5b50565b5f815190506101ef816101cb565b92915050565b5f5f5f6060848603121561020c5761020b61007b565b5b5f84015167ffffffffffffffff8111156102295761022861007f565b5b61023586828701610192565b935050602084015167ffffffffffffffff8111156102565761025561007f565b5b61026286828701610192565b9250506040610273868287016101e1565b9150509250925092565b5f81519050919050565b7f4e487b71000000000000000000000000000000000000000000000000000000005f52602260045260245ffd5b5f60028204905060018216806102cb57607f821691505b6020821081036102de576102dd610287565b5b50919050565b5f819050815f5260205f209050919050565b5f6020601f8301049050919050565b5f82821b905092915050565b5f600883026103407fffffffffffffffffffffffffffffffffffffffffffffffffffffffffffffffff82610305565b61034a8683610305565b95508019841693508086168417925050509392505050565b5f819050919050565b5f819050919050565b5f61038e61038961038484610362565b61036b565b610362565b9050919050565b5f819050919050565b6103a783610374565b6103bb6103b382610395565b848454610311565b825550505050565b5f5f905090565b6103d26103c3565b6103dd81848461039e565b505050565b5b81811015610400576103f55f826103ca565b6001810190506103e3565b5050565b601f82111561044557610416816102e4565b61041f846102f6565b8101602085101561042e578190505b61044261043a856102f6565b8301826103e2565b50505b505050565b5f82821c905092915050565b5f6104655f198460080261044a565b1980831691505092915050565b5f61047d8383610456565b9150826002028217905092915050565b6104968261027d565b67ffffffffffffffff8111156104af576104ae61009b565b5b6104b982546102b4565b6104c4828285610404565b5f60209050601f8311600181146104f5575f84156104e3578287015190505b6104ed8582610472565b865550610554565b601f198416610503866102e4565b5f5b8281101561052a57848901518255600182019150602085019450602081019050610505565b868310156105475784890151610543601f891682610456565b8355505b6001600288020188555050505b505050505050565b610824806105695f395ff3fe608060405234801561000f575f5ffd5b506004361061007b575f3560e01c8063313ce56711610059578063313ce567146100c557806370a08231146100e357806395d89b4114610113578063a9059cbb146101315761007b565b806306fdde031461007f5780631249c58b1461009d57806318160ddd146100a7575b5f5ffd5b610087610161565b6040516100949190610555565b60405180910390f35b6100a56101ec565b005b6100af6102cd565b6040516100bc919061058d565b60405180910390f35b6100cd6102d3565b6040516100da91906105c1565b60405180910390f35b6100fd60048036038101906100f89190610638565b6102e5565b60405161010a919061058d565b60405180910390f35b61011b6102fa565b6040516101289190610555565b60405180910390f35b61014b6004803603810190610146919061068d565b610386565b60405161015891906106e5565b60405180910390f35b5f805461016d9061072b565b80601f01602080910402602001604051908101604052809291908181526020018280546101999061072b565b80156101e45780601f106101bb576101008083540402835291602001916101e4565b820191905f5260205f20905b8154815290600101906020018083116101c757829003601f168201915b505050505081565b5f69021e19e0c9bab240000090508060045f3373ffffffffffffffffffffffffffffffffffffffff1673ffffffffffffffffffffffffffffffffffffffff1681526020019081526020015f205f8282546102469190610788565b925050819055508060035f82825461025e9190610788565b925050819055503373ffffffffffffffffffffffffffffffffffffffff165f73ffffffffffffffffffffffffffffffffffffffff167fddf252ad1be2c89b69c2b068fc378daa952ba7f163c4a11628f55a4df523b3ef836040516102c2919061058d565b60405180910390a350565b60035481565b60025f9054906101000a900460ff1681565b6004602052805f5260405f205f915090505481565b600180546103079061072b565b80601f01602080910402602001604051908101604052809291908181526020018280546103339061072b565b801561037e5780601f106103555761010080835404028352916020019161037e565b820191905f5260205f20905b81548152906001019060200180831161036157829003601f168201915b505050505081565b5f8160045f3373ffffffffffffffffffffffffffffffffffffffff1673ffffffffffffffffffffffffffffffffffffffff1681526020019081526020015f205410156103d0575f5ffd5b8160045f3373ffffffffffffffffffffffffffffffffffffffff1673ffffffffffffffffffffffffffffffffffffffff1681526020019081526020015f205f82825461041c91906107bb565b925050819055508160045f8573ffffffffffffffffffffffffffffffffffffffff1673ffffffffffffffffffffffffffffffffffffffff1681526020019081526020015f205f82825461046f9190610788565b925050819055508273ffffffffffffffffffffffffffffffffffffffff163373ffffffffffffffffffffffffffffffffffffffff167fddf252ad1be2c89b69c2b068fc378daa952ba7f163c4a11628f55a4df523b3ef846040516104d3919061058d565b60405180910390a36001905092915050565b5f81519050919050565b5f82825260208201905092915050565b8281835e5f83830152505050565b5f601f19601f8301169050919050565b5f610527826104e5565b61053181856104ef565b93506105418185602086016104ff565b61054a8161050d565b840191505092915050565b5f6020820190508181035f83015261056d818461051d565b905092915050565b5f819050919050565b61058781610575565b82525050565b5f6020820190506105a05f83018461057e565b92915050565b5f60ff82169050919050565b6105bb816105a6565b82525050565b5f6020820190506105d45f8301846105b2565b92915050565b5f5ffd5b5f73ffffffffffffffffffffffffffffffffffffffff82169050919050565b5f610607826105de565b9050919050565b610617816105fd565b8114610621575f5ffd5b50565b5f813590506106328161060e565b92915050565b5f6020828403121561064d5761064c6105da565b5b5f61065a84828501610624565b91505092915050565b61066c81610575565b8114610676575f5ffd5b50565b5f8135905061068781610663565b92915050565b5f5f604083850312156106a3576106a26105da565b5b5f6106b085828601610624565b92505060206106c185828601610679565b9150509250929050565b5f8115159050919050565b6106df816106cb565b82525050565b5f6020820190506106f85f8301846106d6565b92915050565b7f4e487b71000000000000000000000000000000000000000000000000000000005f52602260045260245ffd5b5f600282049050600182168061074257607f821691505b602082108103610755576107546106fe565b5b50919050565b7f4e487b71000000000000000000000000000000000000000000000000000000005f52601160045260245ffd5b5f61079282610575565b915061079d83610575565b92508282019050808211156107b5576107b461075b565b5b92915050565b5f6107c582610575565b91506107d083610575565b92508282039050818111156107e8576107e761075b565b5b9291505056fea2646970667358221220422c2ed49bd6997469aabb49a56287b44c472ef9eddb2278a5f280846422d50464736f6c634300081c0033","linkReferences":{}},"methodIdentifiers":{"balanceOf(address)":"70a08231","decimals()":"313ce567","mint()":"1249c58b","name()":"06fdde03","symbol()":"95d89b41","totalSupply()":"18160ddd","transfer(address,uint256)":"a9059cbb"},"id":16}